{
    "_format": "hh-sol-artifact-1",
    "contractName": "Web3Mint",
    "sourceName": "contracts/Web3Mint.sol",
    "abi": [
        {
            "inputs": [],
            "stateMutability": "nonpayable",
            "type": "constructor"
        },
        {
            "anonymous": false,
            "inputs": [
                {
                    "indexed": true,
                    "internalType": "address",
                    "name": "owner",
                    "type": "address"
                },
                {
                    "indexed": true,
                    "internalType": "address",
                    "name": "approved",
                    "type": "address"
                },
                {
                    "indexed": true,
                    "internalType": "uint256",
                    "name": "tokenId",
                    "type": "uint256"
                }
            ],
            "name": "Approval",
            "type": "event"
        },
        {
            "anonymous": false,
            "inputs": [
                {
                    "indexed": true,
                    "internalType": "address",
                    "name": "owner",
                    "type": "address"
                },
                {
                    "indexed": true,
                    "internalType": "address",
                    "name": "operator",
                    "type": "address"
                },
                {
                    "indexed": false,
                    "internalType": "bool",
                    "name": "approved",
                    "type": "bool"
                }
            ],
            "name": "ApprovalForAll",
            "type": "event"
        },
        {
            "anonymous": false,
            "inputs": [
                {
                    "indexed": false,
                    "internalType": "address",
                    "name": "sender",
                    "type": "address"
                },
                {
                    "indexed": false,
                    "internalType": "uint256",
                    "name": "tokenId",
                    "type": "uint256"
                }
            ],
            "name": "NewNFTMinted",
            "type": "event"
        },
        {
            "anonymous": false,
            "inputs": [
                {
                    "indexed": true,
                    "internalType": "address",
                    "name": "from",
                    "type": "address"
                },
                {
                    "indexed": true,
                    "internalType": "address",
                    "name": "to",
                    "type": "address"
                },
                {
                    "indexed": true,
                    "internalType": "uint256",
                    "name": "tokenId",
                    "type": "uint256"
                }
            ],
            "name": "Transfer",
            "type": "event"
        },
        {
            "inputs": [
                {
                    "internalType": "address",
                    "name": "to",
                    "type": "address"
                },
                {
                    "internalType": "uint256",
                    "name": "tokenId",
                    "type": "uint256"
                }
            ],
            "name": "approve",
            "outputs": [],
            "stateMutability": "nonpayable",
            "type": "function"
        },
        {
            "inputs": [
                {
                    "internalType": "address",
                    "name": "owner",
                    "type": "address"
                }
            ],
            "name": "balanceOf",
            "outputs": [
                {
                    "internalType": "uint256",
                    "name": "",
                    "type": "uint256"
                }
            ],
            "stateMutability": "view",
            "type": "function"
        },
        {
            "inputs": [
                {
                    "internalType": "uint256",
                    "name": "tokenId",
                    "type": "uint256"
                }
            ],
            "name": "getApproved",
            "outputs": [
                {
                    "internalType": "address",
                    "name": "",
                    "type": "address"
                }
            ],
            "stateMutability": "view",
            "type": "function"
        },
        {
            "inputs": [
                {
                    "internalType": "address",
                    "name": "owner",
                    "type": "address"
                },
                {
                    "internalType": "address",
                    "name": "operator",
                    "type": "address"
                }
            ],
            "name": "isApprovedForAll",
            "outputs": [
                {
                    "internalType": "bool",
                    "name": "",
                    "type": "bool"
                }
            ],
            "stateMutability": "view",
            "type": "function"
        },
        {
            "inputs": [
                {
                    "internalType": "string",
                    "name": "name",
                    "type": "string"
                },
                {
                    "internalType": "string",
                    "name": "imageURI",
                    "type": "string"
                }
            ],
            "name": "mintIpfsNFT",
            "outputs": [],
            "stateMutability": "nonpayable",
            "type": "function"
        },
        {
            "inputs": [],
            "name": "name",
            "outputs": [
                {
                    "internalType": "string",
                    "name": "",
                    "type": "string"
                }
            ],
            "stateMutability": "view",
            "type": "function"
        },
        {
            "inputs": [
                {
                    "internalType": "uint256",
                    "name": "tokenId",
                    "type": "uint256"
                }
            ],
            "name": "ownerOf",
            "outputs": [
                {
                    "internalType": "address",
                    "name": "",
                    "type": "address"
                }
            ],
            "stateMutability": "view",
            "type": "function"
        },
        {
            "inputs": [
                {
                    "internalType": "address",
                    "name": "from",
                    "type": "address"
                },
                {
                    "internalType": "address",
                    "name": "to",
                    "type": "address"
                },
                {
                    "internalType": "uint256",
                    "name": "tokenId",
                    "type": "uint256"
                }
            ],
            "name": "safeTransferFrom",
            "outputs": [],
            "stateMutability": "nonpayable",
            "type": "function"
        },
        {
            "inputs": [
                {
                    "internalType": "address",
                    "name": "from",
                    "type": "address"
                },
                {
                    "internalType": "address",
                    "name": "to",
                    "type": "address"
                },
                {
                    "internalType": "uint256",
                    "name": "tokenId",
                    "type": "uint256"
                },
                {
                    "internalType": "bytes",
                    "name": "data",
                    "type": "bytes"
                }
            ],
            "name": "safeTransferFrom",
            "outputs": [],
            "stateMutability": "nonpayable",
            "type": "function"
        },
        {
            "inputs": [
                {
                    "internalType": "address",
                    "name": "operator",
                    "type": "address"
                },
                {
                    "internalType": "bool",
                    "name": "approved",
                    "type": "bool"
                }
            ],
            "name": "setApprovalForAll",
            "outputs": [],
            "stateMutability": "nonpayable",
            "type": "function"
        },
        {
            "inputs": [
                {
                    "internalType": "bytes4",
                    "name": "interfaceId",
                    "type": "bytes4"
                }
            ],
            "name": "supportsInterface",
            "outputs": [
                {
                    "internalType": "bool",
                    "name": "",
                    "type": "bool"
                }
            ],
            "stateMutability": "view",
            "type": "function"
        },
        {
            "inputs": [],
            "name": "symbol",
            "outputs": [
                {
                    "internalType": "string",
                    "name": "",
                    "type": "string"
                }
            ],
            "stateMutability": "view",
            "type": "function"
        },
        {
            "inputs": [
                {
                    "internalType": "uint256",
                    "name": "_tokenId",
                    "type": "uint256"
                }
            ],
            "name": "tokenURI",
            "outputs": [
                {
                    "internalType": "string",
                    "name": "",
                    "type": "string"
                }
            ],
            "stateMutability": "view",
            "type": "function"
        },
        {
            "inputs": [
                {
                    "internalType": "address",
                    "name": "from",
                    "type": "address"
                },
                {
                    "internalType": "address",
                    "name": "to",
                    "type": "address"
                },
                {
                    "internalType": "uint256",
                    "name": "tokenId",
                    "type": "uint256"
                }
            ],
            "name": "transferFrom",
            "outputs": [],
            "stateMutability": "nonpayable",
            "type": "function"
        }
    ],
    "bytecode": "0x60806040523480156200001157600080fd5b506040518060400160405280600381526020017f4e465400000000000000000000000000000000000000000000000000000000008152506040518060400160405280600381526020017f6e66740000000000000000000000000000000000000000000000000000000000815250816000908051906020019062000096929190620001cf565b508060019080519060200190620000af929190620001cf565b505050620000fd6040518060400160405280601881526020017f54686973206973206d79204e465420636f6e74726163742e00000000000000008152506200010360201b62000b631760201c565b620003ac565b620001a3816040516024016200011a919062000323565b6040516020818303038152906040527f41304fac000000000000000000000000000000000000000000000000000000007bffffffffffffffffffffffffffffffffffffffffffffffffffffffff19166020820180517bffffffffffffffffffffffffffffffffffffffffffffffffffffffff8381831617835250505050620001a660201b60201c565b50565b60008151905060006a636f6e736f6c652e6c6f679050602083016000808483855afa5050505050565b828054620001dd9062000376565b90600052602060002090601f0160209004810192826200020157600085556200024d565b82601f106200021c57805160ff19168380011785556200024d565b828001600101855582156200024d579182015b828111156200024c5782518255916020019190600101906200022f565b5b5090506200025c919062000260565b5090565b5b808211156200027b57600081600090555060010162000261565b5090565b600081519050919050565b600082825260208201905092915050565b60005b83811015620002bb5780820151818401526020810190506200029e565b83811115620002cb576000848401525b50505050565b6000601f19601f8301169050919050565b6000620002ef826200027f565b620002fb81856200028a565b93506200030d8185602086016200029b565b6200031881620002d1565b840191505092915050565b600060208201905081810360008301526200033f8184620002e2565b905092915050565b7f4e487b7100000000000000000000000000000000000000000000000000000000600052602260045260246000fd5b600060028204905060018216806200038f57607f821691505b60208210811415620003a657620003a562000347565b5b50919050565b61319c80620003bc6000396000f3fe608060405234801561001057600080fd5b50600436106100ea5760003560e01c806370a082311161008c578063b88d4fde11610066578063b88d4fde1461025b578063c87b56dd14610277578063e985e9c5146102a7578063eb00195d146102d7576100ea565b806370a08231146101f157806395d89b4114610221578063a22cb4651461023f576100ea565b8063095ea7b3116100c8578063095ea7b31461016d57806323b872dd1461018957806342842e0e146101a55780636352211e146101c1576100ea565b806301ffc9a7146100ef57806306fdde031461011f578063081812fc1461013d575b600080fd5b61010960048036038101906101049190611ccc565b6102f3565b6040516101169190611d14565b60405180910390f35b6101276103d5565b6040516101349190611dc8565b60405180910390f35b61015760048036038101906101529190611e20565b610467565b6040516101649190611e8e565b60405180910390f35b61018760048036038101906101829190611ed5565b6104ad565b005b6101a3600480360381019061019e9190611f15565b6105c5565b005b6101bf60048036038101906101ba9190611f15565b610625565b005b6101db60048036038101906101d69190611e20565b610645565b6040516101e89190611e8e565b60405180910390f35b61020b60048036038101906102069190611f68565b6106f7565b6040516102189190611fa4565b60405180910390f35b6102296107af565b6040516102369190611dc8565b60405180910390f35b61025960048036038101906102549190611feb565b610841565b005b61027560048036038101906102709190612160565b610857565b005b610291600480360381019061028c9190611e20565b6108b9565b60405161029e9190611dc8565b60405180910390f35b6102c160048036038101906102bc91906121e3565b610969565b6040516102ce9190611d14565b60405180910390f35b6102f160048036038101906102ec91906122c4565b6109fd565b005b60007f80ac58cd000000000000000000000000000000000000000000000000000000007bffffffffffffffffffffffffffffffffffffffffffffffffffffffff1916827bffffffffffffffffffffffffffffffffffffffffffffffffffffffff191614806103be57507f5b5e139f000000000000000000000000000000000000000000000000000000007bffffffffffffffffffffffffffffffffffffffffffffffffffffffff1916827bffffffffffffffffffffffffffffffffffffffffffffffffffffffff1916145b806103ce57506103cd82610bfc565b5b9050919050565b6060600080546103e49061236b565b80601f01602080910402602001604051908101604052809291908181526020018280546104109061236b565b801561045d5780601f106104325761010080835404028352916020019161045d565b820191906000526020600020905b81548152906001019060200180831161044057829003601f168201915b5050505050905090565b600061047282610c66565b6004600083815260200190815260200160002060009054906101000a900473ffffffffffffffffffffffffffffffffffffffff169050919050565b60006104b882610645565b90508073ffffffffffffffffffffffffffffffffffffffff168373ffffffffffffffffffffffffffffffffffffffff161415610529576040517f08c379a00000000000000000000000000000000000000000000000000000000081526004016105209061240f565b60405180910390fd5b8073ffffffffffffffffffffffffffffffffffffffff16610548610cb1565b73ffffffffffffffffffffffffffffffffffffffff161480610577575061057681610571610cb1565b610969565b5b6105b6576040517f08c379a00000000000000000000000000000000000000000000000000000000081526004016105ad906124a1565b60405180910390fd5b6105c08383610cb9565b505050565b6105d66105d0610cb1565b82610d72565b610615576040517f08c379a000000000000000000000000000000000000000000000000000000000815260040161060c90612533565b60405180910390fd5b610620838383610e07565b505050565b61064083838360405180602001604052806000815250610857565b505050565b6000806002600084815260200190815260200160002060009054906101000a900473ffffffffffffffffffffffffffffffffffffffff169050600073ffffffffffffffffffffffffffffffffffffffff168173ffffffffffffffffffffffffffffffffffffffff1614156106ee576040517f08c379a00000000000000000000000000000000000000000000000000000000081526004016106e59061259f565b60405180910390fd5b80915050919050565b60008073ffffffffffffffffffffffffffffffffffffffff168273ffffffffffffffffffffffffffffffffffffffff161415610768576040517f08c379a000000000000000000000000000000000000000000000000000000000815260040161075f90612631565b60405180910390fd5b600360008373ffffffffffffffffffffffffffffffffffffffff1673ffffffffffffffffffffffffffffffffffffffff168152602001908152602001600020549050919050565b6060600180546107be9061236b565b80601f01602080910402602001604051908101604052809291908181526020018280546107ea9061236b565b80156108375780601f1061080c57610100808354040283529160200191610837565b820191906000526020600020905b81548152906001019060200180831161081a57829003601f168201915b5050505050905090565b61085361084c610cb1565b838361106e565b5050565b610868610862610cb1565b83610d72565b6108a7576040517f08c379a000000000000000000000000000000000000000000000000000000000815260040161089e90612533565b60405180910390fd5b6108b3848484846111db565b50505050565b60606000610939600684815481106108d4576108d3612651565b5b90600052602060002090600202016000016108ee85611237565b6006868154811061090257610901612651565b5b9060005260206000209060020201600101604051602001610925939291906128a6565b604051602081830303815290604052611398565b905060008160405160200161094e919061294f565b60405160208183030381529060405290508092505050919050565b6000600560008473ffffffffffffffffffffffffffffffffffffffff1673ffffffffffffffffffffffffffffffffffffffff16815260200190815260200160002060008373ffffffffffffffffffffffffffffffffffffffff1673ffffffffffffffffffffffffffffffffffffffff16815260200190815260200160002060009054906101000a900460ff16905092915050565b6000610a096007611530565b9050600a8110610a4e576040517f08c379a0000000000000000000000000000000000000000000000000000000008152600401610a45906129e3565b60405180910390fd5b610a58338261153e565b600660405180604001604052808581526020018481525090806001815401808255809150506001900390600052602060002090600202016000909190919091506000820151816000019080519060200190610ab4929190611bbd565b506020820151816001019080519060200190610ad1929190611bbd565b505050610af76040518060600160405280602581526020016130df60259139823361155c565b610b1b6040518060600160405280602381526020016131446023913982600a6115fb565b7f1c05098ed1ff38e6238d2b1b04b2c7977d4c94ce651bda6473f9dba8dbf01da03382604051610b4c929190612a03565b60405180910390a1610b5e600761169a565b505050565b610bf981604051602401610b779190611dc8565b6040516020818303038152906040527f41304fac000000000000000000000000000000000000000000000000000000007bffffffffffffffffffffffffffffffffffffffffffffffffffffffff19166020820180517bffffffffffffffffffffffffffffffffffffffffffffffffffffffff83818316178352505050506116b0565b50565b60007f01ffc9a7000000000000000000000000000000000000000000000000000000007bffffffffffffffffffffffffffffffffffffffffffffffffffffffff1916827bffffffffffffffffffffffffffffffffffffffffffffffffffffffff1916149050919050565b610c6f816116d9565b610cae576040517f08c379a0000000000000000000000000000000000000000000000000000000008152600401610ca59061259f565b60405180910390fd5b50565b600033905090565b816004600083815260200190815260200160002060006101000a81548173ffffffffffffffffffffffffffffffffffffffff021916908373ffffffffffffffffffffffffffffffffffffffff160217905550808273ffffffffffffffffffffffffffffffffffffffff16610d2c83610645565b73ffffffffffffffffffffffffffffffffffffffff167f8c5be1e5ebec7d5bd14f71427d1e84f3dd0314c0f7b2291e5b200ac8c7c3b92560405160405180910390a45050565b600080610d7e83610645565b90508073ffffffffffffffffffffffffffffffffffffffff168473ffffffffffffffffffffffffffffffffffffffff161480610dc05750610dbf8185610969565b5b80610dfe57508373ffffffffffffffffffffffffffffffffffffffff16610de684610467565b73ffffffffffffffffffffffffffffffffffffffff16145b91505092915050565b8273ffffffffffffffffffffffffffffffffffffffff16610e2782610645565b73ffffffffffffffffffffffffffffffffffffffff1614610e7d576040517f08c379a0000000000000000000000000000000000000000000000000000000008152600401610e7490612a9e565b60405180910390fd5b600073ffffffffffffffffffffffffffffffffffffffff168273ffffffffffffffffffffffffffffffffffffffff161415610eed576040517f08c379a0000000000000000000000000000000000000000000000000000000008152600401610ee490612b30565b60405180910390fd5b610ef8838383611745565b610f03600082610cb9565b6001600360008573ffffffffffffffffffffffffffffffffffffffff1673ffffffffffffffffffffffffffffffffffffffff1681526020019081526020016000206000828254610f539190612b7f565b925050819055506001600360008473ffffffffffffffffffffffffffffffffffffffff1673ffffffffffffffffffffffffffffffffffffffff1681526020019081526020016000206000828254610faa9190612bb3565b92505081905550816002600083815260200190815260200160002060006101000a81548173ffffffffffffffffffffffffffffffffffffffff021916908373ffffffffffffffffffffffffffffffffffffffff160217905550808273ffffffffffffffffffffffffffffffffffffffff168473ffffffffffffffffffffffffffffffffffffffff167fddf252ad1be2c89b69c2b068fc378daa952ba7f163c4a11628f55a4df523b3ef60405160405180910390a46110698383836117c4565b505050565b8173ffffffffffffffffffffffffffffffffffffffff168373ffffffffffffffffffffffffffffffffffffffff1614156110dd576040517f08c379a00000000000000000000000000000000000000000000000000000000081526004016110d490612c55565b60405180910390fd5b80600560008573ffffffffffffffffffffffffffffffffffffffff1673ffffffffffffffffffffffffffffffffffffffff16815260200190815260200160002060008473ffffffffffffffffffffffffffffffffffffffff1673ffffffffffffffffffffffffffffffffffffffff16815260200190815260200160002060006101000a81548160ff0219169083151502179055508173ffffffffffffffffffffffffffffffffffffffff168373ffffffffffffffffffffffffffffffffffffffff167f17307eab39ab6107e8899845ad3d59bd9653f200f220920489ca2b5937696c31836040516111ce9190611d14565b60405180910390a3505050565b6111e6848484610e07565b6111f2848484846117c9565b611231576040517f08c379a000000000000000000000000000000000000000000000000000000000815260040161122890612ce7565b60405180910390fd5b50505050565b6060600082141561127f576040518060400160405280600181526020017f30000000000000000000000000000000000000000000000000000000000000008152509050611393565b600082905060005b600082146112b157808061129a90612d07565b915050600a826112aa9190612d7f565b9150611287565b60008167ffffffffffffffff8111156112cd576112cc612035565b5b6040519080825280601f01601f1916602001820160405280156112ff5781602001600182028036833780820191505090505b5090505b6000851461138c576001826113189190612b7f565b9150600a856113279190612db0565b60306113339190612bb3565b60f81b81838151811061134957611348612651565b5b60200101907effffffffffffffffffffffffffffffffffffffffffffffffffffffffffffff1916908160001a905350600a856113859190612d7f565b9450611303565b8093505050505b919050565b606060008251905060008114156113c1576040518060200160405280600081525091505061152b565b600060036002836113d29190612bb3565b6113dc9190612d7f565b60046113e89190612de1565b905060006020826113f99190612bb3565b67ffffffffffffffff81111561141257611411612035565b5b6040519080825280601f01601f1916602001820160405280156114445781602001600182028036833780820191505090505b5090506000604051806060016040528060408152602001613104604091399050600181016020830160005b868110156114e85760038101905062ffffff818a015116603f8160121c168401518060081b905060ff603f83600c1c1686015116810190508060081b905060ff603f8360061c1686015116810190508060081b905060ff603f831686015116810190508060e01b9050808452600484019350505061146f565b50600386066001811461150257600281146115125761151d565b613d3d60f01b600283035261151d565b603d60f81b60018303525b508484525050819450505050505b919050565b600081600001549050919050565b611558828260405180602001604052806000815250611960565b5050565b6115f683838360405160240161157493929190612e3b565b6040516020818303038152906040527f1c7ec448000000000000000000000000000000000000000000000000000000007bffffffffffffffffffffffffffffffffffffffffffffffffffffffff19166020820180517bffffffffffffffffffffffffffffffffffffffffffffffffffffffff83818316178352505050506116b0565b505050565b61169583838360405160240161161393929190612e79565b6040516020818303038152906040527fca47c4eb000000000000000000000000000000000000000000000000000000007bffffffffffffffffffffffffffffffffffffffffffffffffffffffff19166020820180517bffffffffffffffffffffffffffffffffffffffffffffffffffffffff83818316178352505050506116b0565b505050565b6001816000016000828254019250508190555050565b60008151905060006a636f6e736f6c652e6c6f679050602083016000808483855afa5050505050565b60008073ffffffffffffffffffffffffffffffffffffffff166002600084815260200190815260200160002060009054906101000a900473ffffffffffffffffffffffffffffffffffffffff1673ffffffffffffffffffffffffffffffffffffffff1614159050919050565b600073ffffffffffffffffffffffffffffffffffffffff168373ffffffffffffffffffffffffffffffffffffffff16146117b4576040517f08c379a00000000000000000000000000000000000000000000000000000000081526004016117ab90612f03565b60405180910390fd5b6117bf8383836119bb565b505050565b505050565b60006117ea8473ffffffffffffffffffffffffffffffffffffffff166119c0565b15611953578373ffffffffffffffffffffffffffffffffffffffff1663150b7a02611813610cb1565b8786866040518563ffffffff1660e01b81526004016118359493929190612f78565b602060405180830381600087803b15801561184f57600080fd5b505af192505050801561188057506040513d601f19601f8201168201806040525081019061187d9190612fd9565b60015b611903573d80600081146118b0576040519150601f19603f3d011682016040523d82523d6000602084013e6118b5565b606091505b506000815114156118fb576040517f08c379a00000000000000000000000000000000000000000000000000000000081526004016118f290612ce7565b60405180910390fd5b805181602001fd5b63150b7a0260e01b7bffffffffffffffffffffffffffffffffffffffffffffffffffffffff1916817bffffffffffffffffffffffffffffffffffffffffffffffffffffffff191614915050611958565b600190505b949350505050565b61196a83836119e3565b61197760008484846117c9565b6119b6576040517f08c379a00000000000000000000000000000000000000000000000000000000081526004016119ad90612ce7565b60405180910390fd5b505050565b505050565b6000808273ffffffffffffffffffffffffffffffffffffffff163b119050919050565b600073ffffffffffffffffffffffffffffffffffffffff168273ffffffffffffffffffffffffffffffffffffffff161415611a53576040517f08c379a0000000000000000000000000000000000000000000000000000000008152600401611a4a90613052565b60405180910390fd5b611a5c816116d9565b15611a9c576040517f08c379a0000000000000000000000000000000000000000000000000000000008152600401611a93906130be565b60405180910390fd5b611aa860008383611745565b6001600360008473ffffffffffffffffffffffffffffffffffffffff1673ffffffffffffffffffffffffffffffffffffffff1681526020019081526020016000206000828254611af89190612bb3565b92505081905550816002600083815260200190815260200160002060006101000a81548173ffffffffffffffffffffffffffffffffffffffff021916908373ffffffffffffffffffffffffffffffffffffffff160217905550808273ffffffffffffffffffffffffffffffffffffffff16600073ffffffffffffffffffffffffffffffffffffffff167fddf252ad1be2c89b69c2b068fc378daa952ba7f163c4a11628f55a4df523b3ef60405160405180910390a4611bb9600083836117c4565b5050565b828054611bc99061236b565b90600052602060002090601f016020900481019282611beb5760008555611c32565b82601f10611c0457805160ff1916838001178555611c32565b82800160010185558215611c32579182015b82811115611c31578251825591602001919060010190611c16565b5b509050611c3f9190611c43565b5090565b5b80821115611c5c576000816000905550600101611c44565b5090565b6000604051905090565b600080fd5b600080fd5b60007fffffffff0000000000000000000000000000000000000000000000000000000082169050919050565b611ca981611c74565b8114611cb457600080fd5b50565b600081359050611cc681611ca0565b92915050565b600060208284031215611ce257611ce1611c6a565b5b6000611cf084828501611cb7565b91505092915050565b60008115159050919050565b611d0e81611cf9565b82525050565b6000602082019050611d296000830184611d05565b92915050565b600081519050919050565b600082825260208201905092915050565b60005b83811015611d69578082015181840152602081019050611d4e565b83811115611d78576000848401525b50505050565b6000601f19601f8301169050919050565b6000611d9a82611d2f565b611da48185611d3a565b9350611db4818560208601611d4b565b611dbd81611d7e565b840191505092915050565b60006020820190508181036000830152611de28184611d8f565b905092915050565b6000819050919050565b611dfd81611dea565b8114611e0857600080fd5b50565b600081359050611e1a81611df4565b92915050565b600060208284031215611e3657611e35611c6a565b5b6000611e4484828501611e0b565b91505092915050565b600073ffffffffffffffffffffffffffffffffffffffff82169050919050565b6000611e7882611e4d565b9050919050565b611e8881611e6d565b82525050565b6000602082019050611ea36000830184611e7f565b92915050565b611eb281611e6d565b8114611ebd57600080fd5b50565b600081359050611ecf81611ea9565b92915050565b60008060408385031215611eec57611eeb611c6a565b5b6000611efa85828601611ec0565b9250506020611f0b85828601611e0b565b9150509250929050565b600080600060608486031215611f2e57611f2d611c6a565b5b6000611f3c86828701611ec0565b9350506020611f4d86828701611ec0565b9250506040611f5e86828701611e0b565b9150509250925092565b600060208284031215611f7e57611f7d611c6a565b5b6000611f8c84828501611ec0565b91505092915050565b611f9e81611dea565b82525050565b6000602082019050611fb96000830184611f95565b92915050565b611fc881611cf9565b8114611fd357600080fd5b50565b600081359050611fe581611fbf565b92915050565b6000806040838503121561200257612001611c6a565b5b600061201085828601611ec0565b925050602061202185828601611fd6565b9150509250929050565b600080fd5b600080fd5b7f4e487b7100000000000000000000000000000000000000000000000000000000600052604160045260246000fd5b61206d82611d7e565b810181811067ffffffffffffffff8211171561208c5761208b612035565b5b80604052505050565b600061209f611c60565b90506120ab8282612064565b919050565b600067ffffffffffffffff8211156120cb576120ca612035565b5b6120d482611d7e565b9050602081019050919050565b82818337600083830152505050565b60006121036120fe846120b0565b612095565b90508281526020810184848401111561211f5761211e612030565b5b61212a8482856120e1565b509392505050565b600082601f8301126121475761214661202b565b5b81356121578482602086016120f0565b91505092915050565b6000806000806080858703121561217a57612179611c6a565b5b600061218887828801611ec0565b945050602061219987828801611ec0565b93505060406121aa87828801611e0b565b925050606085013567ffffffffffffffff8111156121cb576121ca611c6f565b5b6121d787828801612132565b91505092959194509250565b600080604083850312156121fa576121f9611c6a565b5b600061220885828601611ec0565b925050602061221985828601611ec0565b9150509250929050565b600067ffffffffffffffff82111561223e5761223d612035565b5b61224782611d7e565b9050602081019050919050565b600061226761226284612223565b612095565b90508281526020810184848401111561228357612282612030565b5b61228e8482856120e1565b509392505050565b600082601f8301126122ab576122aa61202b565b5b81356122bb848260208601612254565b91505092915050565b600080604083850312156122db576122da611c6a565b5b600083013567ffffffffffffffff8111156122f9576122f8611c6f565b5b61230585828601612296565b925050602083013567ffffffffffffffff81111561232657612325611c6f565b5b61233285828601612296565b9150509250929050565b7f4e487b7100000000000000000000000000000000000000000000000000000000600052602260045260246000fd5b6000600282049050600182168061238357607f821691505b602082108114156123975761239661233c565b5b50919050565b7f4552433732313a20617070726f76616c20746f2063757272656e74206f776e6560008201527f7200000000000000000000000000000000000000000000000000000000000000602082015250565b60006123f9602183611d3a565b91506124048261239d565b604082019050919050565b60006020820190508181036000830152612428816123ec565b9050919050565b7f4552433732313a20617070726f76652063616c6c6572206973206e6f7420746f60008201527f6b656e206f776e6572206e6f7220617070726f76656420666f7220616c6c0000602082015250565b600061248b603e83611d3a565b91506124968261242f565b604082019050919050565b600060208201905081810360008301526124ba8161247e565b9050919050565b7f4552433732313a2063616c6c6572206973206e6f7420746f6b656e206f776e6560008201527f72206e6f7220617070726f766564000000000000000000000000000000000000602082015250565b600061251d602e83611d3a565b9150612528826124c1565b604082019050919050565b6000602082019050818103600083015261254c81612510565b9050919050565b7f4552433732313a20696e76616c696420746f6b656e2049440000000000000000600082015250565b6000612589601883611d3a565b915061259482612553565b602082019050919050565b600060208201905081810360008301526125b88161257c565b9050919050565b7f4552433732313a2061646472657373207a65726f206973206e6f74206120766160008201527f6c6964206f776e65720000000000000000000000000000000000000000000000602082015250565b600061261b602983611d3a565b9150612626826125bf565b604082019050919050565b6000602082019050818103600083015261264a8161260e565b9050919050565b7f4e487b7100000000000000000000000000000000000000000000000000000000600052603260045260246000fd5b600081905092915050565b7f7b226e616d65223a202200000000000000000000000000000000000000000000600082015250565b60006126c1600a83612680565b91506126cc8261268b565b600a82019050919050565b60008190508160005260206000209050919050565b600081546126f98161236b565b6127038186612680565b9450600182166000811461271e576001811461272f57612762565b60ff19831686528186019350612762565b612738856126d7565b60005b8381101561275a5781548189015260018201915060208101905061273b565b838801955050505b50505092915050565b7f202d2d205342547320233a200000000000000000000000000000000000000000600082015250565b60006127a1600c83612680565b91506127ac8261276b565b600c82019050919050565b60006127c282611d2f565b6127cc8185612680565b93506127dc818560208601611d4b565b80840191505092915050565b7f222c20226465736372697074696f6e223a2022416e2065706963204e4654222c60008201527f2022696d616765223a2022697066733a2f2f0000000000000000000000000000602082015250565b6000612844603283612680565b915061284f826127e8565b603282019050919050565b7f227d000000000000000000000000000000000000000000000000000000000000600082015250565b6000612890600283612680565b915061289b8261285a565b600282019050919050565b60006128b1826126b4565b91506128bd82866126ec565b91506128c882612794565b91506128d482856127b7565b91506128df82612837565b91506128eb82846126ec565b91506128f682612883565b9150819050949350505050565b7f646174613a6170706c69636174696f6e2f6a736f6e3b6261736536342c000000600082015250565b6000612939601d83612680565b915061294482612903565b601d82019050919050565b600061295a8261292c565b915061296682846127b7565b915081905092915050565b7f4d61782076616c7565206f66206d696e74696e67204e4654206973206578636560008201527f656465642e000000000000000000000000000000000000000000000000000000602082015250565b60006129cd602583611d3a565b91506129d882612971565b604082019050919050565b600060208201905081810360008301526129fc816129c0565b9050919050565b6000604082019050612a186000830185611e7f565b612a256020830184611f95565b9392505050565b7f4552433732313a207472616e736665722066726f6d20696e636f72726563742060008201527f6f776e6572000000000000000000000000000000000000000000000000000000602082015250565b6000612a88602583611d3a565b9150612a9382612a2c565b604082019050919050565b60006020820190508181036000830152612ab781612a7b565b9050919050565b7f4552433732313a207472616e7366657220746f20746865207a65726f2061646460008201527f7265737300000000000000000000000000000000000000000000000000000000602082015250565b6000612b1a602483611d3a565b9150612b2582612abe565b604082019050919050565b60006020820190508181036000830152612b4981612b0d565b9050919050565b7f4e487b7100000000000000000000000000000000000000000000000000000000600052601160045260246000fd5b6000612b8a82611dea565b9150612b9583611dea565b925082821015612ba857612ba7612b50565b5b828203905092915050565b6000612bbe82611dea565b9150612bc983611dea565b9250827fffffffffffffffffffffffffffffffffffffffffffffffffffffffffffffffff03821115612bfe57612bfd612b50565b5b828201905092915050565b7f4552433732313a20617070726f766520746f2063616c6c657200000000000000600082015250565b6000612c3f601983611d3a565b9150612c4a82612c09565b602082019050919050565b60006020820190508181036000830152612c6e81612c32565b9050919050565b7f4552433732313a207472616e7366657220746f206e6f6e20455243373231526560008201527f63656976657220696d706c656d656e7465720000000000000000000000000000602082015250565b6000612cd1603283611d3a565b9150612cdc82612c75565b604082019050919050565b60006020820190508181036000830152612d0081612cc4565b9050919050565b6000612d1282611dea565b91507fffffffffffffffffffffffffffffffffffffffffffffffffffffffffffffffff821415612d4557612d44612b50565b5b600182019050919050565b7f4e487b7100000000000000000000000000000000000000000000000000000000600052601260045260246000fd5b6000612d8a82611dea565b9150612d9583611dea565b925082612da557612da4612d50565b5b828204905092915050565b6000612dbb82611dea565b9150612dc683611dea565b925082612dd657612dd5612d50565b5b828206905092915050565b6000612dec82611dea565b9150612df783611dea565b9250817fffffffffffffffffffffffffffffffffffffffffffffffffffffffffffffffff0483118215151615612e3057612e2f612b50565b5b828202905092915050565b60006060820190508181036000830152612e558186611d8f565b9050612e646020830185611f95565b612e716040830184611e7f565b949350505050565b60006060820190508181036000830152612e938186611d8f565b9050612ea26020830185611f95565b612eaf6040830184611f95565b949350505050565b7f4552523a20544f4b454e20495320534f554c20424f554e440000000000000000600082015250565b6000612eed601883611d3a565b9150612ef882612eb7565b602082019050919050565b60006020820190508181036000830152612f1c81612ee0565b9050919050565b600081519050919050565b600082825260208201905092915050565b6000612f4a82612f23565b612f548185612f2e565b9350612f64818560208601611d4b565b612f6d81611d7e565b840191505092915050565b6000608082019050612f8d6000830187611e7f565b612f9a6020830186611e7f565b612fa76040830185611f95565b8181036060830152612fb98184612f3f565b905095945050505050565b600081519050612fd381611ca0565b92915050565b600060208284031215612fef57612fee611c6a565b5b6000612ffd84828501612fc4565b91505092915050565b7f4552433732313a206d696e7420746f20746865207a65726f2061646472657373600082015250565b600061303c602083611d3a565b915061304782613006565b602082019050919050565b6000602082019050818103600083015261306b8161302f565b9050919050565b7f4552433732313a20746f6b656e20616c7265616479206d696e74656400000000600082015250565b60006130a8601c83611d3a565b91506130b382613072565b602082019050919050565b600060208201905081810360008301526130d78161309b565b905091905056fe416e204e465420772f20494420257320686173206265656e206d696e74656420746f2025734142434445464748494a4b4c4d4e4f505152535455565758595a6162636465666768696a6b6c6d6e6f707172737475767778797a303132333435363738392b2f546865206e756d626572206f66204d696e746564204e4654206973202573202f202573a2646970667358221220e54bcfd51afe38223eded37278f67ca0a2b085bdb6b79cae82e50a05b0321f2a64736f6c63430008090033",
    "linkReferences": {},
    "deployedLinkReferences": {}
}